{
  "_format": "hh3-artifact-1",
  "contractName": "ItemRegistry",
  "sourceName": "contracts/ItemRegistry.sol",
  "abi": [
    {
      "inputs": [],
      "stateMutability": "nonpayable",
      "type": "constructor"
    },
    {
      "inputs": [
        {
          "internalType": "address",
          "name": "sender",
          "type": "address"
        },
        {
          "internalType": "uint256",
          "name": "tokenId",
          "type": "uint256"
        },
        {
          "internalType": "address",
          "name": "owner",
          "type": "address"
        }
      ],
      "name": "ERC721IncorrectOwner",
      "type": "error"
    },
    {
      "inputs": [
        {
          "internalType": "address",
          "name": "operator",
          "type": "address"
        },
        {
          "internalType": "uint256",
          "name": "tokenId",
          "type": "uint256"
        }
      ],
      "name": "ERC721InsufficientApproval",
      "type": "error"
    },
    {
      "inputs": [
        {
          "internalType": "address",
          "name": "approver",
          "type": "address"
        }
      ],
      "name": "ERC721InvalidApprover",
      "type": "error"
    },
    {
      "inputs": [
        {
          "internalType": "address",
          "name": "operator",
          "type": "address"
        }
      ],
      "name": "ERC721InvalidOperator",
      "type": "error"
    },
    {
      "inputs": [
        {
          "internalType": "address",
          "name": "owner",
          "type": "address"
        }
      ],
      "name": "ERC721InvalidOwner",
      "type": "error"
    },
    {
      "inputs": [
        {
          "internalType": "address",
          "name": "receiver",
          "type": "address"
        }
      ],
      "name": "ERC721InvalidReceiver",
      "type": "error"
    },
    {
      "inputs": [
        {
          "internalType": "address",
          "name": "sender",
          "type": "address"
        }
      ],
      "name": "ERC721InvalidSender",
      "type": "error"
    },
    {
      "inputs": [
        {
          "internalType": "uint256",
          "name": "tokenId",
          "type": "uint256"
        }
      ],
      "name": "ERC721NonexistentToken",
      "type": "error"
    },
    {
      "inputs": [
        {
          "internalType": "address",
          "name": "owner",
          "type": "address"
        }
      ],
      "name": "OwnableInvalidOwner",
      "type": "error"
    },
    {
      "inputs": [
        {
          "internalType": "address",
          "name": "account",
          "type": "address"
        }
      ],
      "name": "OwnableUnauthorizedAccount",
      "type": "error"
    },
    {
      "anonymous": false,
      "inputs": [
        {
          "indexed": true,
          "internalType": "address",
          "name": "owner",
          "type": "address"
        },
        {
          "indexed": true,
          "internalType": "address",
          "name": "approved",
          "type": "address"
        },
        {
          "indexed": true,
          "internalType": "uint256",
          "name": "tokenId",
          "type": "uint256"
        }
      ],
      "name": "Approval",
      "type": "event"
    },
    {
      "anonymous": false,
      "inputs": [
        {
          "indexed": true,
          "internalType": "address",
          "name": "owner",
          "type": "address"
        },
        {
          "indexed": true,
          "internalType": "address",
          "name": "operator",
          "type": "address"
        },
        {
          "indexed": false,
          "internalType": "bool",
          "name": "approved",
          "type": "bool"
        }
      ],
      "name": "ApprovalForAll",
      "type": "event"
    },
    {
      "anonymous": false,
      "inputs": [
        {
          "indexed": true,
          "internalType": "uint256",
          "name": "tokenId",
          "type": "uint256"
        },
        {
          "indexed": false,
          "internalType": "uint8",
          "name": "newDurability",
          "type": "uint8"
        }
      ],
      "name": "DurabilityReduced",
      "type": "event"
    },
    {
      "anonymous": false,
      "inputs": [
        {
          "indexed": true,
          "internalType": "address",
          "name": "owner",
          "type": "address"
        },
        {
          "indexed": true,
          "internalType": "uint256",
          "name": "tokenId",
          "type": "uint256"
        },
        {
          "indexed": false,
          "internalType": "enum ItemRegistry.ItemType",
          "name": "itemType",
          "type": "uint8"
        },
        {
          "indexed": false,
          "internalType": "enum ItemRegistry.Rarity",
          "name": "rarity",
          "type": "uint8"
        }
      ],
      "name": "ItemMinted",
      "type": "event"
    },
    {
      "anonymous": false,
      "inputs": [
        {
          "indexed": true,
          "internalType": "uint256",
          "name": "tokenId",
          "type": "uint256"
        },
        {
          "indexed": false,
          "internalType": "uint8",
          "name": "newDurability",
          "type": "uint8"
        }
      ],
      "name": "ItemRepaired",
      "type": "event"
    },
    {
      "anonymous": false,
      "inputs": [
        {
          "indexed": true,
          "internalType": "address",
          "name": "previousOwner",
          "type": "address"
        },
        {
          "indexed": true,
          "internalType": "address",
          "name": "newOwner",
          "type": "address"
        }
      ],
      "name": "OwnershipTransferred",
      "type": "event"
    },
    {
      "anonymous": false,
      "inputs": [
        {
          "indexed": true,
          "internalType": "address",
          "name": "from",
          "type": "address"
        },
        {
          "indexed": true,
          "internalType": "address",
          "name": "to",
          "type": "address"
        },
        {
          "indexed": true,
          "internalType": "uint256",
          "name": "tokenId",
          "type": "uint256"
        }
      ],
      "name": "Transfer",
      "type": "event"
    },
    {
      "inputs": [],
      "name": "MINT_PRICE",
      "outputs": [
        {
          "internalType": "uint256",
          "name": "",
          "type": "uint256"
        }
      ],
      "stateMutability": "view",
      "type": "function"
    },
    {
      "inputs": [
        {
          "internalType": "address",
          "name": "to",
          "type": "address"
        },
        {
          "internalType": "uint256",
          "name": "tokenId",
          "type": "uint256"
        }
      ],
      "name": "approve",
      "outputs": [],
      "stateMutability": "nonpayable",
      "type": "function"
    },
    {
      "inputs": [
        {
          "internalType": "address",
          "name": "owner",
          "type": "address"
        }
      ],
      "name": "balanceOf",
      "outputs": [
        {
          "internalType": "uint256",
          "name": "",
          "type": "uint256"
        }
      ],
      "stateMutability": "view",
      "type": "function"
    },
    {
      "inputs": [],
      "name": "dungeonContract",
      "outputs": [
        {
          "internalType": "address",
          "name": "",
          "type": "address"
        }
      ],
      "stateMutability": "view",
      "type": "function"
    },
    {
      "inputs": [
        {
          "internalType": "uint256",
          "name": "tokenId",
          "type": "uint256"
        }
      ],
      "name": "getApproved",
      "outputs": [
        {
          "internalType": "address",
          "name": "",
          "type": "address"
        }
      ],
      "stateMutability": "view",
      "type": "function"
    },
    {
      "inputs": [
        {
          "internalType": "uint256",
          "name": "tokenId",
          "type": "uint256"
        }
      ],
      "name": "getItem",
      "outputs": [
        {
          "components": [
            {
              "internalType": "enum ItemRegistry.ItemType",
              "name": "itemType",
              "type": "uint8"
            },
            {
              "internalType": "enum ItemRegistry.Rarity",
              "name": "rarity",
              "type": "uint8"
            },
            {
              "internalType": "uint8",
              "name": "attack",
              "type": "uint8"
            },
            {
              "internalType": "uint8",
              "name": "defense",
              "type": "uint8"
            },
            {
              "internalType": "uint8",
              "name": "magic",
              "type": "uint8"
            },
            {
              "internalType": "uint8",
              "name": "speed",
              "type": "uint8"
            },
            {
              "internalType": "uint8",
              "name": "durability",
              "type": "uint8"
            },
            {
              "internalType": "uint256",
              "name": "mintedAt",
              "type": "uint256"
            }
          ],
          "internalType": "struct ItemRegistry.Item",
          "name": "",
          "type": "tuple"
        }
      ],
      "stateMutability": "view",
      "type": "function"
    },
    {
      "inputs": [
        {
          "internalType": "uint256",
          "name": "tokenId",
          "type": "uint256"
        }
      ],
      "name": "getPowerScore",
      "outputs": [
        {
          "internalType": "uint256",
          "name": "",
          "type": "uint256"
        }
      ],
      "stateMutability": "view",
      "type": "function"
    },
    {
      "inputs": [
        {
          "internalType": "address",
          "name": "owner",
          "type": "address"
        },
        {
          "internalType": "address",
          "name": "operator",
          "type": "address"
        }
      ],
      "name": "isApprovedForAll",
      "outputs": [
        {
          "internalType": "bool",
          "name": "",
          "type": "bool"
        }
      ],
      "stateMutability": "view",
      "type": "function"
    },
    {
      "inputs": [
        {
          "internalType": "uint256",
          "name": "",
          "type": "uint256"
        }
      ],
      "name": "items",
      "outputs": [
        {
          "internalType": "enum ItemRegistry.ItemType",
          "name": "itemType",
          "type": "uint8"
        },
        {
          "internalType": "enum ItemRegistry.Rarity",
          "name": "rarity",
          "type": "uint8"
        },
        {
          "internalType": "uint8",
          "name": "attack",
          "type": "uint8"
        },
        {
          "internalType": "uint8",
          "name": "defense",
          "type": "uint8"
        },
        {
          "internalType": "uint8",
          "name": "magic",
          "type": "uint8"
        },
        {
          "internalType": "uint8",
          "name": "speed",
          "type": "uint8"
        },
        {
          "internalType": "uint8",
          "name": "durability",
          "type": "uint8"
        },
        {
          "internalType": "uint256",
          "name": "mintedAt",
          "type": "uint256"
        }
      ],
      "stateMutability": "view",
      "type": "function"
    },
    {
      "inputs": [
        {
          "internalType": "enum ItemRegistry.ItemType",
          "name": "_itemType",
          "type": "uint8"
        }
      ],
      "name": "mintItem",
      "outputs": [
        {
          "internalType": "uint256",
          "name": "",
          "type": "uint256"
        }
      ],
      "stateMutability": "payable",
      "type": "function"
    },
    {
      "inputs": [],
      "name": "name",
      "outputs": [
        {
          "internalType": "string",
          "name": "",
          "type": "string"
        }
      ],
      "stateMutability": "view",
      "type": "function"
    },
    {
      "inputs": [],
      "name": "owner",
      "outputs": [
        {
          "internalType": "address",
          "name": "",
          "type": "address"
        }
      ],
      "stateMutability": "view",
      "type": "function"
    },
    {
      "inputs": [
        {
          "internalType": "uint256",
          "name": "tokenId",
          "type": "uint256"
        }
      ],
      "name": "ownerOf",
      "outputs": [
        {
          "internalType": "address",
          "name": "",
          "type": "address"
        }
      ],
      "stateMutability": "view",
      "type": "function"
    },
    {
      "inputs": [
        {
          "internalType": "uint256",
          "name": "tokenId",
          "type": "uint256"
        }
      ],
      "name": "reduceDurability",
      "outputs": [],
      "stateMutability": "nonpayable",
      "type": "function"
    },
    {
      "inputs": [],
      "name": "renounceOwnership",
      "outputs": [],
      "stateMutability": "nonpayable",
      "type": "function"
    },
    {
      "inputs": [
        {
          "internalType": "uint256",
          "name": "tokenId",
          "type": "uint256"
        }
      ],
      "name": "repairItem",
      "outputs": [],
      "stateMutability": "payable",
      "type": "function"
    },
    {
      "inputs": [
        {
          "internalType": "address",
          "name": "from",
          "type": "address"
        },
        {
          "internalType": "address",
          "name": "to",
          "type": "address"
        },
        {
          "internalType": "uint256",
          "name": "tokenId",
          "type": "uint256"
        }
      ],
      "name": "safeTransferFrom",
      "outputs": [],
      "stateMutability": "nonpayable",
      "type": "function"
    },
    {
      "inputs": [
        {
          "internalType": "address",
          "name": "from",
          "type": "address"
        },
        {
          "internalType": "address",
          "name": "to",
          "type": "address"
        },
        {
          "internalType": "uint256",
          "name": "tokenId",
          "type": "uint256"
        },
        {
          "internalType": "bytes",
          "name": "data",
          "type": "bytes"
        }
      ],
      "name": "safeTransferFrom",
      "outputs": [],
      "stateMutability": "nonpayable",
      "type": "function"
    },
    {
      "inputs": [
        {
          "internalType": "address",
          "name": "operator",
          "type": "address"
        },
        {
          "internalType": "bool",
          "name": "approved",
          "type": "bool"
        }
      ],
      "name": "setApprovalForAll",
      "outputs": [],
      "stateMutability": "nonpayable",
      "type": "function"
    },
    {
      "inputs": [
        {
          "internalType": "address",
          "name": "_dungeon",
          "type": "address"
        }
      ],
      "name": "setDungeonContract",
      "outputs": [],
      "stateMutability": "nonpayable",
      "type": "function"
    },
    {
      "inputs": [
        {
          "internalType": "bytes4",
          "name": "interfaceId",
          "type": "bytes4"
        }
      ],
      "name": "supportsInterface",
      "outputs": [
        {
          "internalType": "bool",
          "name": "",
          "type": "bool"
        }
      ],
      "stateMutability": "view",
      "type": "function"
    },
    {
      "inputs": [],
      "name": "symbol",
      "outputs": [
        {
          "internalType": "string",
          "name": "",
          "type": "string"
        }
      ],
      "stateMutability": "view",
      "type": "function"
    },
    {
      "inputs": [
        {
          "internalType": "uint256",
          "name": "tokenId",
          "type": "uint256"
        }
      ],
      "name": "tokenURI",
      "outputs": [
        {
          "internalType": "string",
          "name": "",
          "type": "string"
        }
      ],
      "stateMutability": "view",
      "type": "function"
    },
    {
      "inputs": [
        {
          "internalType": "address",
          "name": "from",
          "type": "address"
        },
        {
          "internalType": "address",
          "name": "to",
          "type": "address"
        },
        {
          "internalType": "uint256",
          "name": "tokenId",
          "type": "uint256"
        }
      ],
      "name": "transferFrom",
      "outputs": [],
      "stateMutability": "nonpayable",
      "type": "function"
    },
    {
      "inputs": [
        {
          "internalType": "address",
          "name": "newOwner",
          "type": "address"
        }
      ],
      "name": "transferOwnership",
      "outputs": [],
      "stateMutability": "nonpayable",
      "type": "function"
    },
    {
      "inputs": [],
      "name": "withdraw",
      "outputs": [],
      "stateMutability": "nonpayable",
      "type": "function"
    }
  ],
  "bytecode": "0x608060405234801561000f575f5ffd5b503360405180604001604052806009815260200168525047204974656d7360b81b815250604051806040016040528060048152602001635250474960e01b815250815f908161005e9190610193565b50600161006b8282610193565b5050506001600160a01b03811661009b57604051631e4fbdf760e01b81525f600482015260240160405180910390fd5b6100a4816100aa565b5061024d565b600680546001600160a01b038381166001600160a01b0319831681179093556040519116919082907f8be0079c531659141344cd1fd0a4f28419497f9722a3daafe3b4186f6b6457e0905f90a35050565b634e487b7160e01b5f52604160045260245ffd5b600181811c9082168061012357607f821691505b60208210810361014157634e487b7160e01b5f52602260045260245ffd5b50919050565b601f82111561018e57805f5260205f20601f840160051c8101602085101561016c5750805b601f840160051c820191505b8181101561018b575f8155600101610178565b50505b505050565b81516001600160401b038111156101ac576101ac6100fb565b6101c0816101ba845461010f565b84610147565b6020601f8211600181146101f2575f83156101db5750848201515b5f19600385901b1c1916600184901b17845561018b565b5f84815260208120601f198516915b828110156102215787850151825560209485019460019092019101610201565b508482101561023e57868401515f19600387901b60f8161c191681555b50505050600190811b01905550565b6122318061025a5f395ff3fe60806040526004361061017a575f3560e01c8063715018a6116100cd578063bfb231d211610087578063e15976f111610062578063e15976f11461049d578063e985e9c5146104bc578063f2fde38b146104db578063f79e4164146104fa575f5ffd5b8063bfb231d2146103dc578063c002d23d14610464578063c87b56dd1461047e575f5ffd5b8063715018a6146103465780638287662c1461035a5780638da5cb5b1461036d57806395d89b411461038a578063a22cb4651461039e578063b88d4fde146103bd575f5ffd5b806323b872dd116101385780633ccfd60b116101135780633ccfd60b146102d557806342842e0e146102e95780636352211e1461030857806370a0823114610327575f5ffd5b806323b872dd146102775780633129e773146102965780633565a4ff146102c2575f5ffd5b806246658f1461017e57806301ffc9a7146101b057806306fdde03146101df578063081812fc14610200578063095ea7b3146102375780631bcd39aa14610258575b5f5ffd5b348015610189575f5ffd5b5061019d610198366004611c7c565b610519565b6040519081526020015b60405180910390f35b3480156101bb575f5ffd5b506101cf6101ca366004611ca8565b61065f565b60405190151581526020016101a7565b3480156101ea575f5ffd5b506101f36106b0565b6040516101a79190611cf1565b34801561020b575f5ffd5b5061021f61021a366004611c7c565b61073f565b6040516001600160a01b0390911681526020016101a7565b348015610242575f5ffd5b50610256610251366004611d1e565b610766565b005b348015610263575f5ffd5b50610256610272366004611d46565b610775565b348015610282575f5ffd5b50610256610291366004611d5f565b6107fa565b3480156102a1575f5ffd5b506102b56102b0366004611c7c565b610883565b6040516101a79190611dd1565b61019d6102d0366004611e56565b61099d565b3480156102e0575f5ffd5b50610256610bc9565b3480156102f4575f5ffd5b50610256610303366004611d5f565b610c60565b348015610313575f5ffd5b5061021f610322366004611c7c565b610c7f565b348015610332575f5ffd5b5061019d610341366004611d46565b610c89565b348015610351575f5ffd5b50610256610cce565b610256610368366004611c7c565b610ce1565b348015610378575f5ffd5b506006546001600160a01b031661021f565b348015610395575f5ffd5b506101f3610e7d565b3480156103a9575f5ffd5b506102566103b8366004611e74565b610e8c565b3480156103c8575f5ffd5b506102566103d7366004611ec1565b610e97565b3480156103e7575f5ffd5b506104506103f6366004611c7c565b60076020525f90815260409020805460019091015460ff808316926101008104821692620100008204831692630100000083048116926401000000008104821692600160281b8204831692600160301b9092049091169088565b6040516101a7989796959493929190611f9e565b34801561046f575f5ffd5b5061019d662386f26fc1000081565b348015610489575f5ffd5b506101f3610498366004611c7c565b610eaf565b3480156104a8575f5ffd5b506102566104b7366004611c7c565b610f20565b3480156104c7575f5ffd5b506101cf6104d6366004611ff1565b6110b1565b3480156104e6575f5ffd5b506102566104f5366004611d46565b6110de565b348015610505575f5ffd5b5060095461021f906001600160a01b031681565b5f8181526007602052604080822081516101008101909252805483929190829060ff16600381111561054d5761054d611d99565b600381111561055e5761055e611d99565b81528154602090910190610100900460ff16600481111561058157610581611d99565b600481111561059257610592611d99565b8152815460ff620100008204811660208401526301000000820481166040840152640100000000820481166060840152600160281b820481166080840152600160301b909104811660a083015260019092015460c091820152820151919250165f0361060057505f92915050565b5f8160a0015182608001518360600151846040015161061f9190612036565b6106299190612036565b6106339190612036565b60ff16905060648260c0015160ff168261064d919061204f565b610657919061207a565b949350505050565b5f6001600160e01b031982166380ac58cd60e01b148061068f57506001600160e01b03198216635b5e139f60e01b145b806106aa57506301ffc9a760e01b6001600160e01b03198316145b92915050565b60605f80546106be9061208d565b80601f01602080910402602001604051908101604052809291908181526020018280546106ea9061208d565b80156107355780601f1061070c57610100808354040283529160200191610735565b820191905f5260205f20905b81548152906001019060200180831161071857829003601f168201915b5050505050905090565b5f6107498261111b565b505f828152600460205260409020546001600160a01b03166106aa565b610771828233611153565b5050565b61077d611160565b6001600160a01b0381166107d85760405162461bcd60e51b815260206004820152601a60248201527f4974656d52656769737472793a207a65726f206164647265737300000000000060448201526064015b60405180910390fd5b600980546001600160a01b0319166001600160a01b0392909216919091179055565b6001600160a01b03821661082357604051633250574960e11b81525f60048201526024016107cf565b5f61082f83833361118d565b9050836001600160a01b0316816001600160a01b03161461087d576040516364283d7b60e01b81526001600160a01b03808616600483015260248201849052821660448201526064016107cf565b50505050565b6108c9604080516101008101909152805f81526020015f81525f6020820181905260408201819052606082018190526080820181905260a0820181905260c09091015290565b5f8281526007602052604090819020815161010081019092528054829060ff1660038111156108fa576108fa611d99565b600381111561090b5761090b611d99565b81528154602090910190610100900460ff16600481111561092e5761092e611d99565b600481111561093f5761093f611d99565b8152815460ff620100008204811660208401526301000000820481166040840152640100000000820481166060840152600160281b820481166080840152600160301b9091041660a082015260019091015460c09091015292915050565b5f662386f26fc100003410156109f55760405162461bcd60e51b815260206004820152601e60248201527f4974656d52656769737472793a20696e73756666696369656e7420455448000060448201526064016107cf565b600880545f9182610a05836120c5565b9190505590505f44423384604051602001610a4b9493929190938452602084019290925260601b6bffffffffffffffffffffffff19166040830152605482015260740190565b6040516020818303038152906040528051906020012090505f610a6d8261127f565b90505f610a7b8683856112ec565b5f858152600760205260409020815181549293508392829060ff19166001836003811115610aab57610aab611d99565b021790555060208201518154829061ff001916610100836004811115610ad357610ad3611d99565b0217905550604082015181546060840151608085015160a086015160c087015163ffff0000199094166201000060ff9687160263ff0000001916176301000000938616939093029290921765ffff0000000019166401000000009185169190910265ff0000000000191617600160281b918416919091021766ff0000000000001916600160301b929091169190910217815560e090910151600190910155610b7b33856115b3565b83336001600160a01b03167ffae7684d9898144edc39a273cfeed11aaf49d7cfb041189b811ef2a58e0f0cc18885604051610bb79291906120dd565b60405180910390a35091949350505050565b610bd1611160565b4780610c295760405162461bcd60e51b815260206004820152602160248201527f4974656d52656769737472793a206e6f7468696e6720746f20776974686472616044820152607760f81b60648201526084016107cf565b6006546040516001600160a01b039091169082156108fc029083905f818181858888f19350505050158015610771573d5f5f3e3d5ffd5b610c7a83838360405180602001604052805f815250610e97565b505050565b5f6106aa8261111b565b5f6001600160a01b038216610cb3576040516322718ad960e21b81525f60048201526024016107cf565b506001600160a01b03165f9081526003602052604090205490565b610cd6611160565b610cdf5f6115cc565b565b33610ceb82610c7f565b6001600160a01b031614610d415760405162461bcd60e51b815260206004820152601b60248201527f4974656d52656769737472793a206e6f7420796f7572206974656d000000000060448201526064016107cf565b6611c37937e08000341015610da65760405162461bcd60e51b815260206004820152602560248201527f4974656d52656769737472793a20696e73756666696369656e74207265706169604482015264722066656560d81b60648201526084016107cf565b5f818152600760205260409020546064600160301b90910460ff1610610e1f5760405162461bcd60e51b815260206004820152602860248201527f4974656d52656769737472793a20616c72656164792061742066756c6c206475604482015267726162696c69747960c01b60648201526084016107cf565b5f81815260076020908152604091829020805466ff0000000000001916666400000000000017905590516064815282917fb65780af93da398d32ac2ee3ca2d885c0971151a0ff17841ed10218ef8082f89910160405180910390a250565b6060600180546106be9061208d565b61077133838361161d565b610ea28484846107fa565b61087d33858585856116e4565b6060610eba8261111b565b505f610ed060408051602081019091525f815290565b90505f815111610eee5760405180602001604052805f815250610f19565b80610ef88461180c565b604051602001610f0992919061210f565b6040516020818303038152906040525b9392505050565b6009546001600160a01b03163314610f935760405162461bcd60e51b815260206004820152603060248201527f4974656d52656769737472793a2063616c6c6572206973206e6f74207468652060448201526f191d5b99d95bdb8818dbdb9d1c9858dd60821b60648201526084016107cf565b5f8181526007602052604090208054600160301b900460ff166110045760405162461bcd60e51b8152602060048201526024808201527f4974656d52656769737472793a206974656d20697320616c726561647920627260448201526337b5b2b760e11b60648201526084016107cf565b80545f906005600160301b90910460ff16101561102c578154600160301b900460ff1661102f565b60055b825490915081908390600690611050908490600160301b900460ff16612123565b82546101009290920a60ff8181021990931691831602179091558354604051600160301b90910490911681528491507f128fa933ddfad11e61673fdc462a8a63059608dad32bc72d86dc989da64cec189060200160405180910390a2505050565b6001600160a01b039182165f90815260056020908152604080832093909416825291909152205460ff1690565b6110e6611160565b6001600160a01b03811661110f57604051631e4fbdf760e01b81525f60048201526024016107cf565b611118816115cc565b50565b5f818152600260205260408120546001600160a01b0316806106aa57604051637e27328960e01b8152600481018490526024016107cf565b610c7a838383600161189c565b6006546001600160a01b03163314610cdf5760405163118cdaa760e01b81523360048201526024016107cf565b5f828152600260205260408120546001600160a01b03908116908316156111b9576111b98184866119a0565b6001600160a01b038116156111f3576111d45f855f5f61189c565b6001600160a01b0381165f90815260036020526040902080545f190190555b6001600160a01b03851615611221576001600160a01b0385165f908152600360205260409020805460010190555b5f8481526002602052604080822080546001600160a01b0319166001600160a01b0389811691821790925591518793918516917fddf252ad1be2c89b69c2b068fc378daa952ba7f163c4a11628f55a4df523b3ef91a4949350505050565b5f8061128e606484831a61213c565b905060328160ff1610156112a457505f92915050565b604b8160ff1610156112b95750600192915050565b605a8160ff1610156112ce5750600292915050565b60628160ff1610156112e35750600392915050565b50600492915050565b611332604080516101008101909152805f81526020015f81525f6020820181905260408201819052606082018190526080820181905260a0820181905260c09091015290565b5f61133c84611a04565b90505f6113626113516014600187901a61213c565b61135c906001612036565b83611a90565b90505f6113886113776014600288901a61213c565b611382906001612036565b84611a90565b90505f61139a601f600388901a61213c565b6113a5906046612036565b9050425f8960038111156113bb576113bb611d99565b0361142e576040518061010001604052808a60038111156113de576113de611d99565b81526020018960048111156113f5576113f5611d99565b815260ff95861660208201525f604082018190526060820181905260808201529290941660a083015260c090910152509150610f199050565b600189600381111561144257611442611d99565b036114b5576040518061010001604052808a600381111561146557611465611d99565b815260200189600481111561147c5761147c611d99565b81525f6020820181905260ff96871660408301526060820181905260808201529290941660a083015260c090910152509150610f199050565b60028960038111156114c9576114c9611d99565b03611545576040518061010001604052808a60038111156114ec576114ec611d99565b815260200189600481111561150357611503611d99565b81526020018560ff1681526020015f60ff1681526020018460ff1681526020015f60ff1681526020018360ff1681526020018281525095505050505050610f19565b6040518061010001604052808a600381111561156357611563611d99565b815260200189600481111561157a5761157a611d99565b81525f6020820181905260408201819052606082015260ff95861660808201529290941660a083015260c0909101525095945050505050565b610771828260405180602001604052805f815250611acc565b600680546001600160a01b038381166001600160a01b0319831681179093556040519116919082907f8be0079c531659141344cd1fd0a4f28419497f9722a3daafe3b4186f6b6457e0905f90a35050565b6001600160a01b0383166116465760405163a9fbf51f60e01b81525f60048201526024016107cf565b6001600160a01b03821661167857604051630b61174360e31b81526001600160a01b03831660048201526024016107cf565b6001600160a01b038381165f81815260056020908152604080832094871680845294825291829020805460ff191686151590811790915591519182527f17307eab39ab6107e8899845ad3d59bd9653f200f220920489ca2b5937696c31910160405180910390a3505050565b6001600160a01b0383163b1561180557604051630a85bd0160e11b81526001600160a01b0384169063150b7a029061172690889088908790879060040161215d565b6020604051808303815f875af1925050508015611760575060408051601f3d908101601f1916820190925261175d91810190612199565b60015b6117c7573d80801561178d576040519150601f19603f3d011682016040523d82523d5f602084013e611792565b606091505b5080515f036117bf57604051633250574960e11b81526001600160a01b03851660048201526024016107cf565b805160208201fd5b6001600160e01b03198116630a85bd0160e11b1461180357604051633250574960e11b81526001600160a01b03851660048201526024016107cf565b505b5050505050565b60605f61181883611ae3565b60010190505f8167ffffffffffffffff81111561183757611837611ead565b6040519080825280601f01601f191660200182016040528015611861576020820181803683370190505b5090508181016020015b5f19016f181899199a1a9b1b9c1cb0b131b232b360811b600a86061a8153600a850494508461186b57509392505050565b80806118b057506001600160a01b03821615155b15611971575f6118bf8461111b565b90506001600160a01b038316158015906118eb5750826001600160a01b0316816001600160a01b031614155b80156118fe57506118fc81846110b1565b155b156119275760405163a9fbf51f60e01b81526001600160a01b03841660048201526024016107cf565b811561196f5783856001600160a01b0316826001600160a01b03167f8c5be1e5ebec7d5bd14f71427d1e84f3dd0314c0f7b2291e5b200ac8c7c3b92560405160405180910390a45b505b50505f90815260046020526040902080546001600160a01b0319166001600160a01b0392909216919091179055565b6119ab838383611bba565b610c7a576001600160a01b0383166119d957604051637e27328960e01b8152600481018290526024016107cf565b60405163177e802f60e01b81526001600160a01b0383166004820152602481018290526044016107cf565b5f80826004811115611a1857611a18611d99565b03611a255750600a919050565b6001826004811115611a3957611a39611d99565b03611a465750600d919050565b6002826004811115611a5a57611a5a611d99565b03611a6757506010919050565b6003826004811115611a7b57611a7b611d99565b03611a8857506014919050565b506019919050565b5f80600a611aa460ff8086169087166121b4565b611aae91906121d8565b905060648161ffff1611611ac25780610657565b6064949350505050565b611ad68383611c1b565b610c7a335f8585856116e4565b5f8072184f03e93ff9f4daa797ed6e38ed64bf6a1f0160401b8310611b215772184f03e93ff9f4daa797ed6e38ed64bf6a1f0160401b830492506040015b6d04ee2d6d415b85acef81000000008310611b4d576d04ee2d6d415b85acef8100000000830492506020015b662386f26fc100008310611b6b57662386f26fc10000830492506010015b6305f5e1008310611b83576305f5e100830492506008015b6127108310611b9757612710830492506004015b60648310611ba9576064830492506002015b600a83106106aa5760010192915050565b5f6001600160a01b038316158015906106575750826001600160a01b0316846001600160a01b03161480611bf35750611bf384846110b1565b806106575750505f908152600460205260409020546001600160a01b03908116911614919050565b6001600160a01b038216611c4457604051633250574960e11b81525f60048201526024016107cf565b5f611c5083835f61118d565b90506001600160a01b03811615610c7a576040516339e3563760e11b81525f60048201526024016107cf565b5f60208284031215611c8c575f5ffd5b5035919050565b6001600160e01b031981168114611118575f5ffd5b5f60208284031215611cb8575f5ffd5b8135610f1981611c93565b5f81518084528060208401602086015e5f602082860101526020601f19601f83011685010191505092915050565b602081525f610f196020830184611cc3565b80356001600160a01b0381168114611d19575f5ffd5b919050565b5f5f60408385031215611d2f575f5ffd5b611d3883611d03565b946020939093013593505050565b5f60208284031215611d56575f5ffd5b610f1982611d03565b5f5f5f60608486031215611d71575f5ffd5b611d7a84611d03565b9250611d8860208501611d03565b929592945050506040919091013590565b634e487b7160e01b5f52602160045260245ffd5b60048110611dbd57611dbd611d99565b9052565b60058110611dbd57611dbd611d99565b5f61010082019050611de4828451611dad565b6020830151611df66020840182611dc1565b5060ff604084015116604083015260ff606084015116606083015260ff608084015116608083015260a0830151611e3260a084018260ff169052565b5060c0830151611e4760c084018260ff169052565b5060e092830151919092015290565b5f60208284031215611e66575f5ffd5b813560048110610f19575f5ffd5b5f5f60408385031215611e85575f5ffd5b611e8e83611d03565b915060208301358015158114611ea2575f5ffd5b809150509250929050565b634e487b7160e01b5f52604160045260245ffd5b5f5f5f5f60808587031215611ed4575f5ffd5b611edd85611d03565b9350611eeb60208601611d03565b925060408501359150606085013567ffffffffffffffff811115611f0d575f5ffd5b8501601f81018713611f1d575f5ffd5b803567ffffffffffffffff811115611f3757611f37611ead565b604051601f8201601f19908116603f0116810167ffffffffffffffff81118282101715611f6657611f66611ead565b604052818152828201602001891015611f7d575f5ffd5b816020840160208301375f6020838301015280935050505092959194509250565b6101008101611fad828b611dad565b611fba602083018a611dc1565b60ff97881660408301529587166060820152938616608085015291851660a084015290931660c082015260e0019190915292915050565b5f5f60408385031215612002575f5ffd5b61200b83611d03565b915061201960208401611d03565b90509250929050565b634e487b7160e01b5f52601160045260245ffd5b60ff81811683821601908111156106aa576106aa612022565b80820281158282048414176106aa576106aa612022565b634e487b7160e01b5f52601260045260245ffd5b5f8261208857612088612066565b500490565b600181811c908216806120a157607f821691505b6020821081036120bf57634e487b7160e01b5f52602260045260245ffd5b50919050565b5f600182016120d6576120d6612022565b5060010190565b604081016120eb8285611dad565b610f196020830184611dc1565b5f81518060208401855e5f93019283525090919050565b5f61065761211d83866120f8565b846120f8565b60ff82811682821603908111156106aa576106aa612022565b5f60ff83168061214e5761214e612066565b8060ff84160691505092915050565b6001600160a01b03858116825284166020820152604081018390526080606082018190525f9061218f90830184611cc3565b9695505050505050565b5f602082840312156121a9575f5ffd5b8151610f1981611c93565b61ffff81811683821602908116908181146121d1576121d1612022565b5092915050565b5f61ffff8316806121eb576121eb612066565b8061ffff8416049150509291505056fea2646970667358221220debd6d6e9f2cb7e293e9cde6bdb27c214dc03cbcdf1e1e671987da0bac0c7c2264736f6c634300081c0033",
  "linkReferences": {},
  "deployedLinkReferences": {},
  "immutableReferences": {},
  "inputSourceName": "project/contracts/ItemRegistry.sol",
  "buildInfoId": "solc-0_8_28-631c52d4b275f60d30b4591ffc9bba91a2d5402b"
}