{
  "_format": "hh3-artifact-1",
  "contractName": "DungeonBattle",
  "sourceName": "contracts/DungeonBattle.sol",
  "abi": [
    {
      "inputs": [
        {
          "internalType": "address",
          "name": "_itemRegistry",
          "type": "address"
        }
      ],
      "stateMutability": "nonpayable",
      "type": "constructor"
    },
    {
      "inputs": [
        {
          "internalType": "address",
          "name": "owner",
          "type": "address"
        }
      ],
      "name": "OwnableInvalidOwner",
      "type": "error"
    },
    {
      "inputs": [
        {
          "internalType": "address",
          "name": "account",
          "type": "address"
        }
      ],
      "name": "OwnableUnauthorizedAccount",
      "type": "error"
    },
    {
      "anonymous": false,
      "inputs": [
        {
          "indexed": true,
          "internalType": "address",
          "name": "player",
          "type": "address"
        },
        {
          "indexed": false,
          "internalType": "bool",
          "name": "playerWon",
          "type": "bool"
        },
        {
          "indexed": false,
          "internalType": "uint256",
          "name": "playerPower",
          "type": "uint256"
        },
        {
          "indexed": false,
          "internalType": "uint256",
          "name": "monsterPower",
          "type": "uint256"
        }
      ],
      "name": "BattleResolved",
      "type": "event"
    },
    {
      "anonymous": false,
      "inputs": [
        {
          "indexed": true,
          "internalType": "address",
          "name": "player",
          "type": "address"
        },
        {
          "indexed": true,
          "internalType": "uint256",
          "name": "tokenId",
          "type": "uint256"
        },
        {
          "indexed": false,
          "internalType": "string",
          "name": "monsterName",
          "type": "string"
        }
      ],
      "name": "BattleStarted",
      "type": "event"
    },
    {
      "anonymous": false,
      "inputs": [
        {
          "indexed": true,
          "internalType": "address",
          "name": "previousOwner",
          "type": "address"
        },
        {
          "indexed": true,
          "internalType": "address",
          "name": "newOwner",
          "type": "address"
        }
      ],
      "name": "OwnershipTransferred",
      "type": "event"
    },
    {
      "anonymous": false,
      "inputs": [
        {
          "indexed": true,
          "internalType": "address",
          "name": "player",
          "type": "address"
        },
        {
          "indexed": false,
          "internalType": "uint256",
          "name": "amount",
          "type": "uint256"
        }
      ],
      "name": "RewardClaimed",
      "type": "event"
    },
    {
      "inputs": [],
      "name": "ENTRY_FEE",
      "outputs": [
        {
          "internalType": "uint256",
          "name": "",
          "type": "uint256"
        }
      ],
      "stateMutability": "view",
      "type": "function"
    },
    {
      "inputs": [
        {
          "internalType": "uint256",
          "name": "",
          "type": "uint256"
        }
      ],
      "name": "battleHistory",
      "outputs": [
        {
          "internalType": "address",
          "name": "player",
          "type": "address"
        },
        {
          "internalType": "uint256",
          "name": "itemTokenId",
          "type": "uint256"
        },
        {
          "internalType": "uint256",
          "name": "playerPower",
          "type": "uint256"
        },
        {
          "internalType": "uint256",
          "name": "monsterPower",
          "type": "uint256"
        },
        {
          "internalType": "bool",
          "name": "playerWon",
          "type": "bool"
        },
        {
          "internalType": "uint256",
          "name": "timestamp",
          "type": "uint256"
        },
        {
          "internalType": "string",
          "name": "monsterName",
          "type": "string"
        }
      ],
      "stateMutability": "view",
      "type": "function"
    },
    {
      "inputs": [],
      "name": "claimRewards",
      "outputs": [],
      "stateMutability": "nonpayable",
      "type": "function"
    },
    {
      "inputs": [
        {
          "internalType": "uint256",
          "name": "tokenId",
          "type": "uint256"
        },
        {
          "internalType": "enum DungeonBattle.Difficulty",
          "name": "difficulty",
          "type": "uint8"
        }
      ],
      "name": "enterDungeon",
      "outputs": [],
      "stateMutability": "payable",
      "type": "function"
    },
    {
      "inputs": [],
      "name": "fundContract",
      "outputs": [],
      "stateMutability": "payable",
      "type": "function"
    },
    {
      "inputs": [
        {
          "internalType": "address",
          "name": "player",
          "type": "address"
        }
      ],
      "name": "getPlayerStats",
      "outputs": [
        {
          "internalType": "uint256",
          "name": "playerWins",
          "type": "uint256"
        },
        {
          "internalType": "uint256",
          "name": "playerLosses",
          "type": "uint256"
        }
      ],
      "stateMutability": "view",
      "type": "function"
    },
    {
      "inputs": [
        {
          "internalType": "uint256",
          "name": "count",
          "type": "uint256"
        }
      ],
      "name": "getRecentBattles",
      "outputs": [
        {
          "components": [
            {
              "internalType": "address",
              "name": "player",
              "type": "address"
            },
            {
              "internalType": "uint256",
              "name": "itemTokenId",
              "type": "uint256"
            },
            {
              "internalType": "uint256",
              "name": "playerPower",
              "type": "uint256"
            },
            {
              "internalType": "uint256",
              "name": "monsterPower",
              "type": "uint256"
            },
            {
              "internalType": "bool",
              "name": "playerWon",
              "type": "bool"
            },
            {
              "internalType": "uint256",
              "name": "timestamp",
              "type": "uint256"
            },
            {
              "internalType": "string",
              "name": "monsterName",
              "type": "string"
            }
          ],
          "internalType": "struct DungeonBattle.BattleRecord[]",
          "name": "",
          "type": "tuple[]"
        }
      ],
      "stateMutability": "view",
      "type": "function"
    },
    {
      "inputs": [],
      "name": "getTotalBattles",
      "outputs": [
        {
          "internalType": "uint256",
          "name": "",
          "type": "uint256"
        }
      ],
      "stateMutability": "view",
      "type": "function"
    },
    {
      "inputs": [],
      "name": "itemRegistry",
      "outputs": [
        {
          "internalType": "contract IItemRegistry",
          "name": "",
          "type": "address"
        }
      ],
      "stateMutability": "view",
      "type": "function"
    },
    {
      "inputs": [
        {
          "internalType": "address",
          "name": "",
          "type": "address"
        }
      ],
      "name": "losses",
      "outputs": [
        {
          "internalType": "uint256",
          "name": "",
          "type": "uint256"
        }
      ],
      "stateMutability": "view",
      "type": "function"
    },
    {
      "inputs": [],
      "name": "owner",
      "outputs": [
        {
          "internalType": "address",
          "name": "",
          "type": "address"
        }
      ],
      "stateMutability": "view",
      "type": "function"
    },
    {
      "inputs": [
        {
          "internalType": "address",
          "name": "",
          "type": "address"
        }
      ],
      "name": "pendingRewards",
      "outputs": [
        {
          "internalType": "uint256",
          "name": "",
          "type": "uint256"
        }
      ],
      "stateMutability": "view",
      "type": "function"
    },
    {
      "inputs": [],
      "name": "renounceOwnership",
      "outputs": [],
      "stateMutability": "nonpayable",
      "type": "function"
    },
    {
      "inputs": [
        {
          "internalType": "address",
          "name": "newOwner",
          "type": "address"
        }
      ],
      "name": "transferOwnership",
      "outputs": [],
      "stateMutability": "nonpayable",
      "type": "function"
    },
    {
      "inputs": [
        {
          "internalType": "address",
          "name": "",
          "type": "address"
        }
      ],
      "name": "wins",
      "outputs": [
        {
          "internalType": "uint256",
          "name": "",
          "type": "uint256"
        }
      ],
      "stateMutability": "view",
      "type": "function"
    },
    {
      "inputs": [],
      "name": "withdraw",
      "outputs": [],
      "stateMutability": "nonpayable",
      "type": "function"
    }
  ],
  "bytecode": "0x608060405234801561000f575f5ffd5b5060405161186438038061186483398101604081905261002e91610128565b338061005457604051631e4fbdf760e01b81525f60048201526024015b60405180910390fd5b61005d816100d9565b506001600160a01b0381166100b45760405162461bcd60e51b815260206004820152601b60248201527f44756e67656f6e426174746c653a207a65726f20616464726573730000000000604482015260640161004b565b600180546001600160a01b0319166001600160a01b0392909216919091179055610155565b5f80546001600160a01b038381166001600160a01b0319831681178455604051919092169283917f8be0079c531659141344cd1fd0a4f28419497f9722a3daafe3b4186f6b6457e09190a35050565b5f60208284031215610138575f5ffd5b81516001600160a01b038116811461014e575f5ffd5b9392505050565b611702806101625f395ff3fe6080604052600436106100ef575f3560e01c80638da5cb5b11610087578063bd097e2111610057578063bd097e21146102c4578063c903c233146102cc578063f2fde38b146102f7578063f6d361cc14610316575f5ffd5b80638da5cb5b1461024e578063957047f61461027e57806395c0d5251461029d578063a8d5e439146102b1575f5ffd5b80634ccc616d116100c25780634ccc616d146101875780634fd66eae146101b9578063715018a61461020f5780638047a97a14610223575f5ffd5b806331d7a262146100f3578063372500ab146101315780633b6806eb146101475780633ccfd60b14610173575b5f5ffd5b3480156100fe575f5ffd5b5061011e61010d3660046112cf565b60056020525f908152604090205481565b6040519081526020015b60405180910390f35b34801561013c575f5ffd5b50610145610330565b005b348015610152575f5ffd5b506101666101613660046112f1565b610479565b6040516101289190611336565b34801561017e575f5ffd5b5061014561067c565b348015610192575f5ffd5b506101a66101a13660046112f1565b610717565b60405161012897969594939291906113ec565b3480156101c4575f5ffd5b506101fa6101d33660046112cf565b6001600160a01b03165f908152600360209081526040808320546004909252909120549091565b60408051928352602083019190915201610128565b34801561021a575f5ffd5b506101456107fe565b34801561022e575f5ffd5b5061011e61023d3660046112cf565b60036020525f908152604090205481565b348015610259575f5ffd5b505f546001600160a01b03165b6040516001600160a01b039091168152602001610128565b348015610289575f5ffd5b50600154610266906001600160a01b031681565b3480156102a8575f5ffd5b5060025461011e565b6101456102bf366004611439565b610811565b610145610d4a565b3480156102d7575f5ffd5b5061011e6102e63660046112cf565b60046020525f908152604090205481565b348015610302575f5ffd5b506101456103113660046112cf565b610d52565b348015610321575f5ffd5b5061011e6611c37937e0800081565b335f908152600560205260409020548061039c5760405162461bcd60e51b815260206004820152602260248201527f44756e67656f6e426174746c653a206e6f207265776172647320746f20636c61604482015261696d60f01b60648201526084015b60405180910390fd5b335f818152600560205260408082208290555190919083908381818185875af1925050503d805f81146103ea576040519150601f19603f3d011682016040523d82523d5f602084013e6103ef565b606091505b50509050806104405760405162461bcd60e51b815260206004820152601e60248201527f44756e67656f6e426174746c653a207472616e73666572206661696c656400006044820152606401610393565b60405182815233907f106f923f993c2149d49b4255ff723acafa1f2d94393f561d3eda32ae348f72419060200160405180910390a25050565b6002546060905f81841161048d578361048f565b815b90505f8167ffffffffffffffff8111156104ab576104ab61146a565b60405190808252806020026020018201604052801561052157816020015b61050e6040518060e001604052805f6001600160a01b031681526020015f81526020015f81526020015f81526020015f151581526020015f8152602001606081525090565b8152602001906001900390816104c95790505b5090505f5b828110156106735760028161053b8587611492565b61054591906114a5565b81548110610555576105556114b8565b5f9182526020918290206040805160e081018252600790930290910180546001600160a01b0316835260018101549383019390935260028301549082015260038201546060820152600482015460ff1615156080820152600582015460a082015260068201805491929160c0840191906105ce906114cc565b80601f01602080910402602001604051908101604052809291908181526020018280546105fa906114cc565b80156106455780601f1061061c57610100808354040283529160200191610645565b820191905f5260205f20905b81548152906001019060200180831161062857829003601f168201915b505050505081525050828281518110610660576106606114b8565b6020908102919091010152600101610526565b50949350505050565b610684610d8f565b47806106dd5760405162461bcd60e51b815260206004820152602260248201527f44756e67656f6e426174746c653a206e6f7468696e6720746f20776974686472604482015261617760f01b6064820152608401610393565b5f80546040516001600160a01b039091169183156108fc02918491818181858888f19350505050158015610713573d5f5f3e3d5ffd5b5050565b60028181548110610726575f80fd5b5f91825260209091206007909102018054600182015460028301546003840154600485015460058601546006870180546001600160a01b03909716985094969395929460ff90921693909290919061077d906114cc565b80601f01602080910402602001604051908101604052809291908181526020018280546107a9906114cc565b80156107f45780601f106107cb576101008083540402835291602001916107f4565b820191905f5260205f20905b8154815290600101906020018083116107d757829003601f168201915b5050505050905087565b610806610d8f565b61080f5f610dbb565b565b6611c37937e080003410156108765760405162461bcd60e51b815260206004820152602560248201527f44756e67656f6e426174746c653a20696e73756666696369656e7420656e7472604482015264792066656560d81b6064820152608401610393565b6001546040516331a9108f60e11b81526004810184905233916001600160a01b031690636352211e90602401602060405180830381865afa1580156108bd573d5f5f3e3d5ffd5b505050506040513d601f19601f820116820180604052508101906108e19190611504565b6001600160a01b0316146109465760405162461bcd60e51b815260206004820152602660248201527f44756e67656f6e426174746c653a20796f7520646f6e2774206f776e2074686960448201526573206974656d60d01b6064820152608401610393565b6001546040516246658f60e01b8152600481018490525f916001600160a01b0316906246658f90602401602060405180830381865afa15801561098b573d5f5f3e3d5ffd5b505050506040513d601f19601f820116820180604052508101906109af919061151f565b90505f8111610a175760405162461bcd60e51b815260206004820152602e60248201527f44756e67656f6e426174746c653a206974656d2069732062726f6b656e2c207260448201526d195c185a5c881a5d08199a5c9cdd60921b6064820152608401610393565b5f610a228385610e0a565b905083336001600160a01b03167fc08d40b5480fd349da04adc6e815c2390640fafc7b8ee8c0d9693f6c57e8cf84835f0151604051610a619190611536565b60405180910390a35f610a748533611249565b90505f6064610a838386611548565b610a8d9190611573565b602084810180516040805160e0810182523381529384018b815290840185815292516060850190815291851015608085018181524260a087019081528a5160c08801908152600280546001810182555f9190915288517f405787fa12a823e0f2b7631cc41b3ba8828b3321ca811111fa75cd3aa3bb5ace600790920291820180546001600160a01b0319166001600160a01b0390921691909117815595517f405787fa12a823e0f2b7631cc41b3ba8828b3321ca811111fa75cd3aa3bb5acf82015596517f405787fa12a823e0f2b7631cc41b3ba8828b3321ca811111fa75cd3aa3bb5ad088015594517f405787fa12a823e0f2b7631cc41b3ba8828b3321ca811111fa75cd3aa3bb5ad187015590517f405787fa12a823e0f2b7631cc41b3ba8828b3321ca811111fa75cd3aa3bb5ad28601805460ff1916911515919091179055517f405787fa12a823e0f2b7631cc41b3ba8828b3321ca811111fa75cd3aa3bb5ad38501559151949550909390917f405787fa12a823e0f2b7631cc41b3ba8828b3321ca811111fa75cd3aa3bb5ad40190610c2a90826115d2565b5050508015610c8157335f908152600360205260408120805491610c4d8361168d565b9091555050604080850151335f9081526005602052918220805491929091610c769084906114a5565b90915550610ca19050565b335f908152600460205260408120805491610c9b8361168d565b91905055505b60015460405163e15976f160e01b8152600481018990526001600160a01b039091169063e15976f1906024015f604051808303815f87803b158015610ce4575f5ffd5b505af1158015610cf6573d5f5f3e3d5ffd5b5050505060208481015160408051841515815292830185905282015233907f7b42024be0ac129944e3263cda981c379264f2c3103fc69d00ffdc659c04f3939060600160405180910390a250505050505050565b61080f610d8f565b610d5a610d8f565b6001600160a01b038116610d8357604051631e4fbdf760e01b81525f6004820152602401610393565b610d8c81610dbb565b50565b5f546001600160a01b0316331461080f5760405163118cdaa760e01b8152336004820152602401610393565b5f80546001600160a01b038381166001600160a01b0319831681178455604051919092169283917f8be0079c531659141344cd1fd0a4f28419497f9722a3daafe3b4186f6b6457e09190a35050565b610e2c6040518060600160405280606081526020015f81526020015f81525090565b604080514260208201529081018390525f90600490606001604051602081830303815290604052805190602001205f1c610e6691906116a5565b90505f846003811115610e7b57610e7b6116b8565b03610f5f575f604051806080016040528060405180604001604052806005815260200164536c696d6560d81b81525081526020016040518060400160405280600681526020016523b7b13634b760d11b81525081526020016040518060400160405280600381526020016214985d60ea1b8152508152602001604051806040016040528060088152602001674d757368726f6f6d60c01b81525081525090506040518060600160405280828460ff1660048110610f3a57610f3a6114b8565b60200201518152602001600f8152602001660aa87bee53800081525092505050611243565b6001846003811115610f7357610f736116b8565b03611057575f6040518060800160405280604051806040016040528060038152602001624f726360e81b81525081526020016040518060400160405280600881526020016729b5b2b632ba37b760c11b815250815260200160405180604001604052806005815260200164151c9bdb1b60da1b81525081526020016040518060400160405280600681526020016510985b991a5d60d21b81525081525090506040518060600160405280828460ff1660048110611032576110326114b8565b60200201518152602001601e8152602001661550f7dca7000081525092505050611243565b600284600381111561106b5761106b6116b8565b0361115a575f60405180608001604052806040518060400160405280600b81526020016a11185c9ac812db9a59da1d60aa1b8152508152602001604051806040016040528060068152602001652bbcbb32b93760d11b81525081526020016040518060400160405280600b81526020016a2732b1b937b6b0b731b2b960a91b815250815260200160405180604001604052806005815260200164476f6c656d60d81b81525081525090506040518060600160405280828460ff1660048110611135576111356114b8565b6020020151815260200160378152602001662aa1efb94e000081525092505050611243565b5f604051806080016040528060405180604001604052806006815260200165223930b3b7b760d11b8152508152602001604051806040016040528060098152602001684c696368204b696e6760b81b81525081526020016040518060400160405280600a81526020016911195b5bdb88131bdc9960b21b81525081526020016040518060400160405280600b81526020016a105b98da595b9d0811dbd960aa1b81525081525090506040518060600160405280828460ff1660048110611222576112226114b8565b60200201518152602001605a81526020016658d15e17628000815250925050505b92915050565b604080514460208201524291810191909152606080820184905282901b6bffffffffffffffffffffffff191660808201525f908190602990609401604051602081830303815290604052805190602001205f1c6112a691906116a5565b90506112b38160506114a5565b949350505050565b6001600160a01b0381168114610d8c575f5ffd5b5f602082840312156112df575f5ffd5b81356112ea816112bb565b9392505050565b5f60208284031215611301575f5ffd5b5035919050565b5f81518084528060208401602086015e5f602082860101526020601f19601f83011685010191505092915050565b5f602082016020835280845180835260408501915060408160051b8601019250602086015f5b828110156113e057603f19878603018452815160018060a01b03815116865260208101516020870152604081015160408701526060810151606087015260808101511515608087015260a081015160a087015260c0810151905060e060c08701526113ca60e0870182611308565b955050602093840193919091019060010161135c565b50929695505050505050565b60018060a01b038816815286602082015285604082015284606082015283151560808201528260a082015260e060c08201525f61142c60e0830184611308565b9998505050505050505050565b5f5f6040838503121561144a575f5ffd5b8235915060208301356004811061145f575f5ffd5b809150509250929050565b634e487b7160e01b5f52604160045260245ffd5b634e487b7160e01b5f52601160045260245ffd5b818103818111156112435761124361147e565b808201808211156112435761124361147e565b634e487b7160e01b5f52603260045260245ffd5b600181811c908216806114e057607f821691505b6020821081036114fe57634e487b7160e01b5f52602260045260245ffd5b50919050565b5f60208284031215611514575f5ffd5b81516112ea816112bb565b5f6020828403121561152f575f5ffd5b5051919050565b602081525f6112ea6020830184611308565b80820281158282048414176112435761124361147e565b634e487b7160e01b5f52601260045260245ffd5b5f826115815761158161155f565b500490565b601f8211156115cd57805f5260205f20601f840160051c810160208510156115ab5750805b601f840160051c820191505b818110156115ca575f81556001016115b7565b50505b505050565b815167ffffffffffffffff8111156115ec576115ec61146a565b611600816115fa84546114cc565b84611586565b6020601f821160018114611632575f831561161b5750848201515b5f19600385901b1c1916600184901b1784556115ca565b5f84815260208120601f198516915b828110156116615787850151825560209485019460019092019101611641565b508482101561167e57868401515f19600387901b60f8161c191681555b50505050600190811b01905550565b5f6001820161169e5761169e61147e565b5060010190565b5f826116b3576116b361155f565b500690565b634e487b7160e01b5f52602160045260245ffdfea26469706673582212204d285123b8feb7945abcfdd6527b7d4985da63e202bcaadaa26ff109bdf7655a64736f6c634300081c0033",
  "linkReferences": {},
  "deployedLinkReferences": {},
  "immutableReferences": {},
  "inputSourceName": "project/contracts/DungeonBattle.sol",
  "buildInfoId": "solc-0_8_28-dc423e2cafe1e540dafb506f9f663b93ec7f281a"
}